:10000000020262D2C3C2C4D2C474011202177402C3
:10001000120217740C120217748012021774300245
:020020000217C5
:10002300020026CA7BCA6BCA5BCA4BCA2BCA1BCA4D
:100033000BC0D1C0D0C083C082309851E599F50878
:10004300C298E509702AE50A0A5B5E54001F2E5424
:100053000080120217E50A0A5B1E541E541E541E2A
:10006300541E543E543E543E542E540080120217E4
:10007300E5081201ED0509E509BEB0104005750953
:1000830000050AE50ABEB0404003750A00D082D0DD
:1000930083D0D0D0D1DA0BDA1BDA2BDA4BDA5BDA86
:1000A3006BDA7B32CA3B7D7374341202176CDD0A40
:1000B3005D2E54008012021774801202176CCC7EDE
:1000C30079B00B741201ED0BC0BEC01078F10BD0E8
:1000D300BED02078DA6CDD0A5D2E54008012021740
:1000E30074881202176CCC7E79B00B741201ED0B7D
:1000F300C0BEC01078F10BD0BED02040DA743612E7
:1001030002177430120217DA3B22CA7974341202CE
:10011300176CFF0A5F2E54008012021774801202BC
:10012300176CEEE41201ED0BE0BEE01078F50BF076
:10013300BEF02078DE6CFF0A5F2E54008012021797
:1001430074881202176CEEE41201ED0BE0BEE010AE
:1001530078F50BF0BEF02040DE74361202177430CF
:10016300120217DA7922CAD8CA797D727CAB7CD79E
:100173004CAB78057EA080801CBEA00178057EA0D4
:10018300908012BEA00278057EA0888008BEA003DE
:1001930078037EA0980A470A5A2D54120217801139
:1001A300BED010500C0A3D2D377E39B01201ED0B35
:1001B300D00A3D2D377E39B070E6DA79DAD822CA13
:1001C300F86CFFC2C0D2C1D2C21202BB800C0BF0CA
:1001D300BEF0642805C2C2E4800DE5805480BEB041
:1001E3008068EBC2C27401DAF822CA797CFB6CEE38
:1001F300800A1202BB0BE0BEE06438151201C26034
:10020300F1D2C0C2C1C2C27AF180D2C21202BBC251
:10021300C2DA7922CA797CFB6CEE800A1202BB0B2C
:10022300E0BEE06438151201C260F1C2C0C2C1C2AF
:10023300C27AF180D2C21202BBC2C2DA79227593AA
:100243000075940075B30075B40075E900120003DE
:1002530012027E7434120217743612021780FE756E
:1002630084017E44041FE47A49B01B4478F97EF884
:10027300000A750900750A00020241759850438E01
:1002830040538EFE53890F758BB8758DFFC2ABD269
:100293008ED2ACD2AF22CA797D7380087E79B00B3F
:1002A300741202AF7E79B070F3DA79227AB199A22F
:1002B30099E43368FAC29922007E1800281B1C783F
:0202C300FC221B
:00000001FF
